:020000040000FA
:10000000600200104D0100001D0200001F020000F0
:100010002102000023020000250200000000000071
:1000200000000000000000000000000027020000A7
:1000300093020000000000009502000097020000FB
:100040009902000099020000990200009902000044
:100050009902000099020000990200009902000034
:100060009902000099020000990200009902000024
:100070009902000099020000990200009902000014
:100080009902000099020000990200009902000004
:1000900099020000990200009902000099020000F4
:1000A00099020000990200009902000099020000E4
:1000B00099020000990200009902000099020000D4
:1000C00099020000990200009902000000F002F875
:1000D00000F02CF80AA090E8000C82448344AAF1B6
:1000E0000107DA4501D100F021F8AFF2090EBAE8B4
:1000F0000F0013F0010F18BFFB1A43F0010318475C
:10010000E8010000F801000000230024002500267B
:10011000103A28BF78C1FBD8520728BF30C148BF6A
:100120000B6070471FB51FBD10B510BD00F0E8F89B
:100130001146FFF7F7FF00F009F900F0C0F803B42B
:10014000FFF7F2FF03BC00F0C7F800005648004775
:1001500000B500EB01024FEA02624FEA12624FEA79
:1001600030204FEA312100EB01034FEA03634FEAED
:1001700013434FEA30204FEA312100EB01044FEAEC
:1001800004644FEA14244FEA30204FEA312100EB97
:1001900001054FEA056542EA030044EA050140EA29
:1001A000010000BD2DE90F500CF1010C16F9040BF4
:1001B00016F9031988422CBF421A0A1A1344BCF1DB
:1001C000040FF1D14FF0FF0C0CEA030306F8043FD3
:1001D000BDE80F9070B5BDF91040BDF9145004FB97
:1001E00005F6BDF91240BDF9165004FB05F505EB07
:1001F0000604069470BD70B5BDF91040BDF91450E9
:1002000004FB05F6BDF91240BDF9165004FB05F5D7
:10021000AE422CBF741BAC1B069470BDFEE7FEE71C
:10022000FEE7FEE7FEE71EF0040F0CBFEFF30880C9
:10023000EFF30980816911F8020C032802D0082825
:1002400012D025E070B4BDF93040BDF9345004FB44
:1002500005F6BDF93240BDF9365004FB05F505EB56
:1002600006040E9470BC13E070B4BDF93040BDF9C3
:10027000345004FB05F6BDF93240BDF9365004FB9D
:1002800005F5AE422CBF741BAC1B0E9470BCFFE78F
:100290007047FEE7FEE7FEE7FEE70000034804497B
:1002A000024A044B70470000CD00000060000010BF
:1002B000600200106000001070477047704710B572
:1002C0000446AFF300802046BDE81040FFF737BF7B
:1002D000004870470000001001491820ABBEFEE73F
:1002E00026000200704700006803000000000010B4
:1002F000600200000801000000000000FFFFFFFF97
:100300007546FFF7E5FFAE4605006946534620F007
:100310000700854618B020B5FFF7C0FFBDE82040B4
:100320004FF000064FF000074FF000084FF0000BB1
:1003300021F00701AC46ACE8C009ACE8C009ACE864
:10034000C009ACE8C0098D467047000070B5044C88
:10035000044D29462046FFF7FBFE0646002070BDEF
:080360008D45307AAA9E15C3F9
:040000050000014DA9
:00000001FF
