:020000040000FA
:1000000040030010CD000000B5010000B701000062
:10001000B9010000BB010000BD01000000000000AC
:10002000000000000000000000000000BF01000010
:10003000C101000000000000C3010000C501000074
:10004000C7010000C7010000C7010000C701000090
:10005000C7010000C7010000C7010000C701000080
:10006000C7010000C7010000C7010000C701000070
:10007000C7010000C7010000C7010000C701000060
:10008000C7010000C7010000C7010000C701000050
:10009000C7010000C7010000C7010000C701000040
:1000A000C7010000C7010000C7010000C701000030
:1000B000C7010000C7010000C7010000C701000020
:1000C000C7010000C7010000C70100004FF0040095
:1000D0004FF005014FF007023E4B3F4C3F4D01B43E
:1000E0004FF0000002B44FF0040902FB09F600FBD8
:1000F00006F6334404B4A1F10101A2F1010253F860
:10010000046B54F8147B86FB076716EB080847EB73
:100110000A0A002AF1D11FD04FF000084FF0000A60
:1001200004BC2C4B4FF0040902FB09F600FB06F659
:100130003344A4F188040029DCD1FFD002BC264C52
:100140005DF8049B00F10100484500D103D04DF853
:10015000049D204BC6E7FEE79AF0FF3F0DD09AF0D2
:10016000000F00D013E04FEAD87ABAF1000F1CD08C
:100170006FF0004845F8048BCEE74FEAD87ABAF121
:10018000010F12D04FF0004845F8048BC4E74FEA46
:10019000DA7ABAF1000F07BF6FF0004845F8048B18
:1001A0004FF0004845F8048BB6E745F8048BB3E7F9
:1001B0000B488047FEE7FEE7FEE7FEE7FEE7FEE7C7
:1001C000FEE7FEE7FEE7FEE706480749054A074B5C
:1001D00070470000F80100006802000000000010F5
:1001E0000103000040010010400300104001001016
:1001F0007047704770470000B80B0000B036000031
:1002000068C5FFFF2823000090650000F830FFFF5D
:1002100088130000A85B010098340100B80B0000AF
:10022000D85900002048010090E8FFFFD08AFFFF66
:10023000F8A7000048F4FFFF384401007869000087
:10024000D8DCFFFF50C30000606D000040A8FEFF37
:1002500028A00000E87A0100A86DFEFF880D0100CB
:1002600058980000D8DCFFFF889000007875FEFFEA
:100270000000000090E20000E0B1FFFF2823000032
:1002800010210100306F010060F0FFFF78E60000F0
:1002900028A6FFFF905F010050CFFEFF803E0000C8
:1002A00060F0FFFF00000000D00DFFFFF04F0100E5
:1002B000204E0000A85B010028230000F04F010041
:1002C000606D000000000000307BFFFF5040010027
:1002D00088130000D0840000F8ADFFFFE8030000A1
:1002E0007011010048FAFEFF282300005040010071
:1002F000B03600000000000000000000FFFFFFFF1C
:1003000020204B4908604B48D0F8A00100F02000A5
:1003100030B100BF4648006800F040000028F9D026
:10032000032043499C39086000204249C1F8A801D4
:100330003F490C31086001203D49943908603E482E
:100340003C4984310860AA203A498C310860552024
:1003500008600120374980310860AA2035498C3176
:10036000086055203349C1F88C0000BF31488830FF
:10037000006800F080600028F8D003202D4980310B
:100380000860AA202B49C1F88C00552029498C31DE
:10039000086000BF27488830006800F04070B0F166
:1003A000407FF7D123202349A4310860AA202149A6
:1003B000C1F8AC0055201F49AC31086001201D492F
:1003C000A0310860AA201B49AC31086055201949AA
:1003D000C1F8AC0000BF1748A830006800F4806086
:1003E0000028F8D003201349A0310860AA20114941
:1003F000C1F8AC0055200F49AC31086000BF0D4872
:10040000A830006800F44070B0F5407FF7D10B4889
:100410000849C431086000200649C1F8C8010846EF
:10042000006820F4704040F480400860704700008D
:10043000A0C10F4000C00F4063000500DE87280404
:1004400000000000000000000000000000000000AC
:10045000000000000000000000000000000000009C
:10046000000000000000000000000000000000008C
:10047000000000000000000000000000000000007C
:10048000000000000000000000000000000000006C
:10049000000000000000000000000000000000005C
:1004A000000000000000000000000000000000004C
:1004B000000000000000000000000000000000003C
:1004C000000000000000000000000000000000002C
:1004D000000000000000000000000000000000001C
:1004E000000000000000000000000000000000000C
:1004F00000000000000000000000000000000000FC
:1005000000000000000000000000000000000000EB
:1005100000000000000000000000000000000000DB
:1005200000000000000000000000000000000000CB
:1005300000000000000000000000000000000000BB
:1005400000000000000000000000000000000000AB
:10055000000000000000000000000000000000009B
:10056000000000000000000000000000000000008B
:10057000000000000000000000000000000000007B
:04000005000000CD2A
:00000001FF
