:020000040000FA
:1000000010020010CD0000002B0100002D010000A7
:100010002F0100003101000033010000000000004A
:10002000000000000000000000000000350100009A
:100030003701000000000000390100003B01000012
:100040003D0100003D0100003D0100003D010000B8
:100050003D0100003D0100003D0100003D010000A8
:100060003D0100003D0100003D0100003D01000098
:100070003D0100003D0100003D0100003D01000088
:100080003D0100003D0100003D0100003D01000078
:100090003D0100003D0100003D0100003D01000068
:1000A0003D0100003D0100003D0100003D01000058
:1000B0003D0100003D0100003D0100003D01000048
:1000C0003D0100003D0100003D0100001F48204CA3
:1000D000018830F8022F02EB01032360256830F815
:1000E000021F30F8022F02EB010344F8043F256899
:1000F00030F8021F30F8022F02EB010344F8043FEE
:10010000256830F8021F30F8022F02EB010344F893
:10011000043F2568FEE779E149DDE03BBEEC09C814
:100120003020F65EAFA40B488047FEE7FEE7FEE70F
:10013000FEE7FEE7FEE7FEE7FEE7FEE7FEE700007C
:1001400005480649044A064B7047000016010000A6
:10015000000000106D0100001000001010020010DF
:1001600010000010704770477047000020204B4976
:1001700008604B48D0F8A00100F0200030B100BF6B
:100180004648006800F040000028F9D003204349A9
:100190009C39086000204249C1F8A8013F490C3150
:1001A000086001203D49943908603E483C4984314B
:1001B0000860AA203A498C31086055200860012067
:1001C000374980310860AA2035498C3108605520B4
:1001D0003349C1F88C0000BF31488830006800F016
:1001E00080600028F8D003202D4980310860AA20C3
:1001F0002B49C1F88C00552029498C31086000BF7B
:1002000027488830006800F04070B0F1407FF7D197
:1002100023202349A4310860AA202149C1F8AC0059
:1002200055201F49AC31086001201D49A0310860EC
:10023000AA201B49AC31086055201949C1F8AC000F
:1002400000BF1748A830006800F480600028F8D08C
:1002500003201349A0310860AA201149C1F8AC005D
:1002600055200F49AC31086000BF0D48A830006828
:1002700000F44070B0F5407FF7D10B480849C43115
:10028000086000200649C1F8C8010846006820F44B
:10029000704040F48040086070470000A0C10F40EB
:1002A00000C00F4063000500DE8728040000000046
:1002B000000000000000000000000000000000003E
:1002C000000000000000000000000000000000002E
:1002D000000000000000000000000000000000001E
:1002E000000000000000000000000000000000000E
:1002F000000000000000000000000000FFFFFFFF02
:1003000000000000000000000000000000000000ED
:04000005000000CD2A
:00000001FF
