:020000040000FA
:1000000010040010E50000000F01000011010000C5
:100010001301000015010000170100009EF3FFEF1F
:1000200000000000000000000000000019010000B6
:100030001B010000000000001D0100001F01000066
:100040002101000021010000210100002101000028
:100050002101000021010000210100002101000018
:100060002101000021010000210100002101000008
:10007000210100000000000021010000210100001A
:1000800021010000210100002101000021010000E8
:1000900021010000210100002101000021010000D8
:1000A00021010000210100002101000021010000C8
:1000B00021010000210100002101000021010000B8
:1000C00021010000210100002101000021010000A8
:1000D0002101000021010000210100002101000098
:1000E00021010000124A134B53F8040B52F8041B71
:1000F00080FA41F470FB01F520FB01F640FB01F7AB
:10010000FEE78D45307AAA9E15C30B488047FEE76F
:10011000FEE7FEE7FEE7FEE7FEE7FEE7FEE7FEE7B7
:10012000FEE7000005480649044A064B70470000F8
:100130000201000006010000510100001000001043
:100140001004001010000010704770477047000046
:1001500010B500F08BF820203549086000BF344806
:10016000006800F040000028F9D00120304994399F
:10017000086009202F49C1F8840001202D498031F1
:100180000860AA202B498C3108605520086000BF08
:1001900028488830006800F480600028F8D02320C8
:1001A0002449A431086001202249C1F8A000AA20F6
:1001B0002049AC31086055201E49C1F8AC0000BF91
:1001C0001C48A830006800F480600028F8D040F295
:1001D000011017499C39086040F201201549C1F807
:1001E000080101201249A039086002201049143189
:1001F00008600F49083108600F480E49C431086093
:1002000088150C49C1F8C8010846D0F8B00140F083
:10021000030007491031086045F23A0005490860BB
:1002200000200649086000F06BF800F0D3F910BD1B
:10023000A0C10F4000C00F40DE87280408ED00E099
:100240000949096842F21072B1FBF2F1484305E036
:1002500000BF00BF00BF00BF00BF00BF011EA0F174
:100260000100F5D170470000000000103EB50F48B6
:100270000F4B191D00221C6801940C6800940D4D51
:10028000019CAC4205D10C4D009CAC4201D1012433
:1002900000E0002422463AB104680294029C44F42F
:1002A00070040294029C04603EBD000088ED00E0F2
:1002B00040EF00E0210011101100001100000000CB
:1002C000000000000000000000000000000000002E
:1002D000000000000000000000000000000000001E
:1002E000000000000000000000000000000000000E
:1002F000000000000000000000000000FFFFFFFF02
:1003000030B5AD48006800F48070002872D1AA486A
:100310000830006800F0010070BBA748006800F0DA
:100320001F0008B9002006E0A348006800F01F0085
:10033000A249B1FBF0F0A24908609F48A4300068D0
:1003400000F01F0008B9002007E09B48A4300068B7
:1003500000F01F009949B1FBF0F09A4908609648F7
:10036000001F006800F00100401C95490968B1FBBE
:10037000F0F095490860BEE08F489C30006800F0BE
:10038000400038B900208E4908608E4908608E49C7
:100390000860B0E08848006800F01F0008B900203D
:1003A00006E08548006800F01F008449B1FBF0F0CA
:1003B000834908608048A430006800F01F0008B935
:1003C000002007E07C48A430006800F01F007B4953
:1003D000B1FBF0F07B4908607748001F006800F02F
:1003E0000100401C76490968B1FBF0F076490860CD
:1003F00081E0FFE770487C38006800F4807038B90D
:1004000000206F4908606F4908606F49086072E01A
:1004100069480830006800F0010070BB664C7C3C05
:10042000246804F01F04601C684CD4F8044104F0F4
:100430001F01614CA434246804F01F02634CD4F8FB
:10044000004104F00104631C09B9002403E05B4C83
:100450004443B4FBF1F45A4D2C600AB9002403E084
:10046000564C4443B4FBF2F4564D2C60544C246873
:10047000B4FBF3F4544D2C603DE0FFE74E489C3054
:10048000006800F0400038B900204D4908604D492F
:1004900008604D4908602EE0474C7C3C246804F01D
:1004A0001F04601C494CD4F8044104F01F01424C65
:1004B000A434246804F01F02444CD4F8004104F032
:1004C0000104631C09B9002403E03C4C4443B4FB21
:1004D000F1F43B4D2C600AB9002403E0374C44434F
:1004E000B4FBF2F4374D2C60354C2468B4FBF3F4C4
:1004F000354D2C6000BF3048001D006800F480704E
:1005000098B32D48001D006800F01F0020B104289A
:1005100006D0062824D104E000202D49086023E0FD
:1005200000BF254A7C3A126802F01F02501C274A7D
:10053000D2F8082102F01F011F4A0832126802F0A7
:10054000010232B11D4A4243B2FBF1F2204B1A6064
:1005500005E01A4A4243B2FBF1F21D4B1A6003E078
:1005600000201B49086000BF25E0FFE71248001D7E
:10057000006800F40070D8B10F480830006800F03F
:10058000010050B10C485C38006800F01F00401CAE
:100590000A4948430E4908600DE007487C38006866
:1005A00000F01F00401C054948430949086002E06B
:1005B00000200749086030BD04C10F40001BB70090
:1005C00000000010040000100800001000C00F40E0
:1005D0000C00001010B50120734908607349C1F880
:1005E0008401714908310860091D0860091D08600F
:1005F000091D0860091D0860091D0860091D0860C3
:10060000091D0860091D0860091D0860091D0860B2
:10061000091D0860091D0860091D0860091D0860A2
:10062000091D0860091D0860091D0860091D086092
:10063000091D0860091D0860091D0860091D086082
:10064000091D0860091D0860091D0860091D086072
:10065000091D0860091D0860091D0860091D086062
:10066000091D0860091D0860091D0860091D086052
:10067000091D0860091D0860091D0860091D086042
:10068000091D0860091D0860091D0860091D086032
:10069000091D0860091D0860091D0860091D086022
:1006A000091D0860091D0860091D0860091D086012
:1006B000091D0860091D0860091D08603C490860A3
:1006C000091D08603A491C39086037493839086003
:1006D000354940390860091D086033491039086000
:1006E000091D0860091D0860091D08602E49303980
:1006F00008602E49C1F860012E48006841F21111CE
:1007000008432D49C1F8DC010846D0F8C40040F484
:1007100000602949C4310860012028490860002090
:1007200088602320486201208862086303204863B0
:10073000052088630220C863032008640120486400
:1007400004208864C8640520086501204865886520
:100750004FF489401A49086040F202201749C1F855
:1007600004016420FFF76CFD40F283101349086216
:10077000C820FFF765FD40F203101049086202200F
:100780004862002400E0641C802CFCD33A200B4912
:100790004862832008620B4800680B4808490860DB
:1007A00000200649086210BD80C1024000C002401E
:1007B00080C20240DCC10F4000C00F4000C00920D1
:1007C00000C10920004004A080440800000E270753
:0C07D0000087930300879303006CDC0299
:04000005000000E512
:00000001FF
