:020000040000FA
:1000000000020010CD0000008D0100008F010000F3
:100010009101000093010000950100000000000024
:100020000000000000000000000000009701000038
:1000300099010000000000009B0100009D010000EC
:100040009F0100009F0100009F0100009F01000030
:100050009F0100009F0100009F0100009F01000020
:100060009F0100009F0100009F0100009F01000010
:100070009F0100009F0100009F0100009F01000000
:100080009F0100009F0100009F0100009F010000F0
:100090009F0100009F0100009F0100009F010000E0
:1000A0009F0100009F0100009F0100009F010000D0
:1000B0009F0100009F0100009F0100009F010000C0
:1000C0009F0100009F0100009F0100004FF4B470E9
:1000D00000F03FF835488047D0B54FF080044FF02E
:1000E000020604FB06F6074607FB07F74FEA570729
:1000F000E01B04FB00F0D0BD10B540281ED017DB7C
:1001000001464FEA5000FFF7E7FF024608464FEA74
:1001100050004FF00203FFF7EFFF012B14D04FF018
:1001200002044FEA142402FB00F004FB00F00BE091
:1001300010F1400F02DA4FF00003E1E7022B18BF85
:1001400001234FEA1020E8E7022B04BF012310BD72
:1001500010BD30B5802814D00FDB4FEA5000FFF7F8
:10016000CBFF4FF002044FF080054FEA142400FB50
:1001700000F000FB04F0281A07E010F1800F00DA0D
:10018000EBE74FEA5000FFF7A7FF30BDFEE7FEE7C1
:10019000FEE7FEE7FEE7FEE7FEE7FEE7FEE7FEE737
:1001A00003480449024A044B704700000103000061
:1001B000000000100002001000000010704770479F
:1001C0007047000000000000000000000000000078
:1001D000000000000000000000000000000000001F
:1001E000000000000000000000000000000000000F
:1001F00000000000000000000000000000000000FF
:1002000000000000000000000000000000000000EE
:1002100000000000000000000000000000000000DE
:1002200000000000000000000000000000000000CE
:1002300000000000000000000000000000000000BE
:1002400000000000000000000000000000000000AE
:10025000000000000000000000000000000000009E
:10026000000000000000000000000000000000008E
:10027000000000000000000000000000000000007E
:10028000000000000000000000000000000000006E
:10029000000000000000000000000000000000005E
:1002A000000000000000000000000000000000004E
:1002B000000000000000000000000000000000003E
:1002C000000000000000000000000000000000002E
:1002D000000000000000000000000000000000001E
:1002E000000000000000000000000000000000000E
:1002F000000000000000000000000000FFFFFFFF02
:1003000020204B4908604B48D0F8A00100F02000A5
:1003100030B100BF4648006800F040000028F9D026
:10032000032043499C39086000204249C1F8A801D4
:100330003F490C31086001203D49943908603E482E
:100340003C4984310860AA203A498C310860552024
:1003500008600120374980310860AA2035498C3176
:10036000086055203349C1F88C0000BF31488830FF
:10037000006800F080600028F8D003202D4980310B
:100380000860AA202B49C1F88C00552029498C31DE
:10039000086000BF27488830006800F04070B0F166
:1003A000407FF7D123202349A4310860AA202149A6
:1003B000C1F8AC0055201F49AC31086001201D492F
:1003C000A0310860AA201B49AC31086055201949AA
:1003D000C1F8AC0000BF1748A830006800F4806086
:1003E0000028F8D003201349A0310860AA20114941
:1003F000C1F8AC0055200F49AC31086000BF0D4872
:10040000A830006800F44070B0F5407FF7D10B4889
:100410000849C431086000200649C1F8C8010846EF
:10042000006820F4704040F480400860704700008D
:10043000A0C10F4000C00F4063000500DE87280404
:04000005000000CD2A
:00000001FF
